:100000000C9463000C948B000C948B000C948B006C
:100010000C948B000C948B000C948B000C948B0034
:100020000C944B010C948B000C948B000C948B0063
:100030000C948B000C948B000C948B000C948B0014
:100040000C94BC010C948B000C9432030C9464034C
:100050000C948B000C948B000C948B000C948B00F4
:100060000C948B000C948B0000000008000201002F
:100070000003040700000000000000000102040863
:100080001020408001020408102001020408102002
:10009000040404040404040402020202020203032E
:1000A00003030303000000002300260029000000D2
:1000B0000000250028002B0000000000240027007D
:1000C0002A00B301940311241FBECFEFD8E0DEBF96
:1000D000CDBF11E0A0E0B1E0E2ECF9E002C0059094
:1000E0000D92A231B107D9F722E0A2E1B1E001C03F
:1000F0001D92AF3CB207E1F710E0C3E6D0E004C0C8
:100100002197FE010E94D904C136D107C9F70E9488
:10011000EF030C94DF040C940000809127028823E5
:1001200019F060E00C9404032D980895882349F099
:1001300080912702882319F061E00C9404032D9A22
:1001400008950C948D00CF93E0911901F0911A015C
:10015000C08180911B01C82380911C0190911D01D9
:10016000019649F080911C0190911D010196909398
:100170001D0180931C018091170181111AC0C111CA
:1001800077C080911C0190911D01813A910508F47E
:100190003FC01092200180911C0190911D0190930D
:1001A00023018093220181E0809321018093170134
:1001B0002FC080911701813099F4CC2309F458C0E5
:1001C00080911C0190911D01E091210191E09E0F11
:1001D00090932101F0E0E95EFE4F858782E0E6CF53
:1001E00080911701823009F04DC0C11124C0E09107
:1001F0002101E83C90F081E08093200183E080932E
:100200001701E0911E01F0911F01309709F0099547
:1002100010921D0110921C012BC080911C01909125
:100220001D0191E09E0F90932101F0E0E95EFE4FE9
:10023000858781E0BBCF80911C0190911D01813A9F
:100240009105B0F0809122019091230190931902C1
:1002500080931802809121018093170283E080939C
:100260001701E0911E01F0911F01309709F00995E7
:100270008091280280FF0DC081E0C11180E0CF9104
:100280000C94960080911701833091F7C111F0CF43
:10029000BFCFCF9108951F920F920FB60F921124E6
:1002A0002F933F934F935F936F937F938F939F937E
:1002B000AF93BF93EF93FF930E94A300FF91EF9141
:1002C000BF91AF919F918F917F916F915F914F916E
:1002D0003F912F910F900FBE0F901F901895862F72
:1002E000A7E1B1E011966C931197262F30E0F90148
:1002F000E458FF4FE4911496EC931497F901E057FA
:10030000FF4FE491F0E0EE0FFF1FEC55FF4F2591FA
:10031000349113963C932E93129760E00C94C8028C
:1003200027E131E0FC0137A726A760E00E946F01BA
:1003300010922702089561E08DE00C94C80261E0FC
:100340008DE00E94040364EF71E080E090E00E9481
:100350002B0260E08DE00E94040364EF71E080E016
:1003600090E00C942B028CEE91E00E949001109290
:1003700012011092270208951F920F920FB60F924A
:1003800011242F933F938F939F93AF93BF938091AB
:100390002A0290912B02A0912C02B0912D02309153
:1003A000290223E0230F2D3758F50196A11DB11D19
:1003B0002093290280932A0290932B02A0932C026F
:1003C000B0932D0280912E0290912F02A0913002C5
:1003D000B09131020196A11DB11D80932E02909320
:1003E0002F02A0933002B0933102BF91AF919F9141
:1003F0008F913F912F910F900FBE0F901F901895E6
:1004000026E8230F0296A11DB11DD2CF3FB7F89465
:1004100080912E0290912F02A0913002B091310272
:1004200026B5A89B05C02F3F19F00196A11DB11D4F
:100430003FBFBA2FA92F982F8827BC01CD01620F8B
:10044000711D811D911D42E0660F771F881F991F46
:100450004A95D1F708958F929F92AF92BF92CF9213
:10046000DF92EF92FF926B017C010E9406024B012A
:100470005C01C114D104E104F104E9F00E94FE031F
:100480000E940602681979098A099B09683E73402F
:100490008105910570F321E0C21AD108E108F10845
:1004A00088EE880E83E0981EA11CB11CC114D104F3
:1004B000E104F10429F7FF90EF90DF90CF90BF9017
:1004C000AF909F908F900895789484B5826084BD9A
:1004D00084B5816084BD85B5826085BD85B5816048
:1004E00085BDEEE6F0E0808181608083E1E8F0E0A8
:1004F0001082808182608083808181608083E0E8D7
:10050000F0E0808181608083E1EBF0E080818460B5
:100510008083E0EBF0E0808181608083EAE7F0E0B7
:10052000808184608083808182608083808181601B
:1005300080838081806880831092C1000895833019
:1005400081F028F4813099F08230A9F00895873045
:10055000A9F08830C9F08430B1F4809180008F7D9B
:1005600003C0809180008F7780938000089584B5C8
:100570008F7784BD089584B58F7DFBCF8091B000C7
:100580008F778093B00008958091B0008F7DF9CF70
:10059000CF93DF9390E0FC01E458FF4F2491805704
:1005A0009F4FFC0184918823C9F090E0880F991F28
:1005B000FC01E854FF4FA591B491FC01E255FF4FB7
:1005C000C591D49161110DC09FB7F8948C9120957D
:1005D00082238C938881282328839FBFDF91CF912A
:1005E0000895623051F49FB7F8943C91822F809522
:1005F00083238C93E8812E2BEFCF8FB7F894EC9167
:100600002E2B2C938FBFEACF1F93CF93DF93282FEE
:1006100030E0F901E859FF4F8491F901E458FF4FA8
:10062000D491F901E057FF4FC491CC23A9F0162FC4
:1006300081110E949F02EC2FF0E0EE0FFF1FE255A8
:10064000FF4FA591B4918FB7F894EC91111108C0A8
:10065000D095DE23DC938FBFDF91CF911F9108955A
:10066000DE2BF8CF1F920F920FB60F9211242F930B
:100670008F939F93EF93FF93E0914202F091430297
:100680008081E0914802F091490282FD1BC0908177
:1006900080914B028F5F8F7320914C02821741F043
:1006A000E0914B02F0E0EE5CFD4F958F80934B02A2
:1006B000FF91EF919F918F912F910F900FBE0F900F
:1006C0001F9018958081F4CF1F920F920FB60F9252
:1006D00011242F933F934F935F936F937F938F9347
:1006E0009F93AF93BF93EF93FF9382E392E00E94B7
:1006F0004A04FF91EF91BF91AF919F918F917F91AC
:100700006F915F914F913F912F910F900FBE0F907E
:100710001F90189582E392E00E94FF0321E0892B4D
:1007200009F420E0822F0895E2E3F2E013821282BE
:1007300088EE93E0A0E0B0E084839583A683B7833E
:1007400084E091E09183808385EC90E095878487B5
:1007500084EC90E09787868780EC90E0918B808B8B
:1007600081EC90E0938B828B82EC90E0958B848B74
:1007700086EC90E0978B868B118E128E138E148EE2
:100780000895AF92BF92CF92DF92EF92FF920F93B4
:100790001F93CF93DF936C017B018B01040F151F17
:1007A000EB015E01AE18BF08C017D10759F069917F
:1007B000D601ED91FC910190F081E02DC6010995E3
:1007C000892B79F7C501DF91CF911F910F91FF9090
:1007D000EF90DF90CF90BF90AF90089508950E9462
:1007E00064020E94EE030E949B01CCE3D4E00E94CD
:1007F0009F012097E1F30E943C04F9CF0895FC018A
:10080000918D228D892F90E0805C9F4F821B9109F2
:100810008F7399270895FC01918D828D981731F07F
:10082000828DE80FF11D858D90E008958FEF9FEF89
:100830000895FC01918D828D981761F0A28DAE0F05
:10084000BF2FB11D5D968C91928D9F5F9F73928F8C
:1008500090E008958FEF9FEF0895FC01538D448D34
:10086000252F30E0842F90E0821B930B541710F05B
:10087000CF960895019708958AE893E0892B49F06F
:1008800080E090E0892B29F00E948A0381110C946A
:1008900000000895FC01A48DA80FB92FB11DA35A23
:1008A000BF4F2C91848D90E001968F739927848F90
:1008B000A689B7892C93A089B1898C9183708064B3
:1008C0008C93938D848D981306C00288F389E02D54
:1008D00080818F7D80830895CF93DF93EC01888D95
:1008E0008823B9F0AA89BB89E889F9898C9185FDAB
:1008F00003C0808186FD0DC00FB607FCF7CF8C9139
:1009000085FFF2CF808185FFEDCFCE010E944A04A2
:10091000E9CFDF91CF910895EF92FF920F931F934C
:10092000CF93DF93EC0181E0888F9B8D8C8D9813A2
:100930001AC0E889F989808185FF15C09FB7F894AE
:10094000EE89FF896083E889F989808183708064FA
:1009500080839FBF81E090E0DF91CF911F910F9145
:10096000FF90EF900895F62E0B8D10E00F5F1F4F54
:100970000F731127E02E8C8D8E110CC00FB607FC63
:10098000FACFE889F989808185FFF5CFCE010E94F1
:100990004A04F1CFEB8DEC0FFD2FF11DE35AFF4F11
:1009A000F0829FB7F8940B8FEA89FB89808180627F
:1009B000CFCFEE0FFF1F0590F491E02D0994F8942E
:0209C000FFCF67
:1009C200000000008C04C1032D046C04FF03190411
:0209D2000B0414
:00000001FF
